:100000000C945A000C9482000C9482000C94820090
:100010000C9482000C9482000C9482000C94820058
:100020000C9482000C9482000C9482000C94820048
:100030000C9482000C9482000C9482000C94820038
:100040000C94F5000C9482000C945F040C94A204B0
:100050000C9482000C9482000C9482000C94820018
:100060000C9403080C9482000000000700020100B9
:100070000003040600000000000000000102040864
:100080001020408001020408102001020408102002
:10009000040404040404040402020202020203032E
:1000A0000303030300000000250028002B00F000DC
:1000B0006505220711241FBECFEFD4E0DEBFCDBF00
:1000C00011E0A0E0B1E0E2EFF7E102C005900D928F
:1000D000A03BB107D9F723E0A0EBB1E001C01D922E
:1000E000A832B207E1F710E0CAE5D0E004C02197DA
:1000F000FE010E94F10BC735D107C9F70E94B80372
:100100000C9489090C94000040E05BE460E070E02E
:100110008EEB91E00E94DD0460E071E08EEB91E0F7
:100120000E941F0267E071E08EEB91E00E941F02C7
:100130006FE371E08EEB91E00E941F0260E07AE0D5
:1001400080EB91E00E94AC0580EB91E00C94A80557
:1001500080EB91E00E940306BC01990F880B990B7C
:100160000E94A80A20E030E040E05CE30E945D0BC2
:10017000AB01BC0122E030E08EEB91E00E94B603BF
:100180006DE771E08EEB91E00E94020264E670E0A0
:1001900080E090E00E94640180EB91E00E942806DC
:1001A000BC01990F880B990B0E94A80A20E030E04F
:1001B00040E05CE30E945D0BAB01BC0122E030E05B
:1001C0008EEB91E00E94B60360E871E08EEB91E067
:1001D0000E941F0264E670E080E090E00C946401ED
:1001E00068E480EB91E00C94A0051F920F920FB68B
:1001F0000F9211242F933F938F939F93AF93BF93AD
:100200008091B6019091B701A091B801B091B90168
:100210003091B50123E0230F2D3720F40196A11D65
:10022000B11D05C026E8230F0296A11DB11D209324
:10023000B5018093B6019093B701A093B801B09334
:10024000B9018091BA019091BB01A091BC01B0911C
:10025000BD010196A11DB11D8093BA019093BB0110
:10026000A093BC01B093BD01BF91AF919F918F91BD
:100270003F912F910F900FBE0F901F9018953FB791
:10028000F8948091BA019091BB01A091BC01B0910A
:10029000BD0126B5A89B05C02F3F19F00196A11DF1
:1002A000B11D3FBFBA2FA92F982F8827820F911D0C
:1002B000A11DB11DBC01CD0142E0660F771F881F53
:1002C000991F4A95D1F70895CF92DF92EF92FF924E
:1002D000CF93DF936B017C010E943F01EB01C114BE
:1002E000D104E104F10479F00E943F016C1B7D0B05
:1002F000683E7340A0F381E0C81AD108E108F10814
:10030000C851DC4FECCFDF91CF91FF90EF90DF90A1
:10031000CF900895789484B5826084BD84B581605F
:1003200084BD85B5826085BD85B5816085BDEEE6FD
:10033000F0E0808181608083E1E8F0E010828081DC
:1003400082608083808181608083E0E8F0E080814A
:1003500081608083E1EBF0E0808184608083E0EB6A
:10036000F0E0808181608083EAE7F0E08081846052
:1003700080838081826080838081816080838081AE
:10038000806880831092C1000895CF92DF92EF922F
:10039000FF920F931F93CF93DF936C01EB017B01CF
:1003A000E40EF51E00E010E0CE15DF0561F0699166
:1003B000D601ED91FC910190F081E02DC6010995E7
:1003C000080F191FF1CFC801DF91CF911F910F9135
:1003D000FF90EF90DF90CF9008956115710579F04F
:1003E000FB0101900020E9F73197AF01461B570B45
:1003F000DC01ED91FC910280F381E02D099480E015
:1004000090E008950C94ED01DC01ED91FC910190D8
:10041000F081E02D09940F931F93CF93DF93EC01AC
:100420006DE00E9404028C016AE0CE010E94040289
:10043000800F911FDF91CF911F910F9108950F931E
:100440001F93CF93DF93EC010E94ED018C01CE014D
:100450000E940B02800F911FDF91CF911F910F918E
:1004600008958F929F92AF92BF92CF92DF92EF92B8
:10047000FF920F931F93CF93DF93CDB7DEB7A19772
:100480000FB6F894DEBF0FBECDBF6C01142FE52F61
:10049000CB01022F19A2223008F40AE07E0121E2EA
:1004A000E20EF11C802E912CA12CB12C612F7E2FFD
:1004B000A50194010E94CF0B029F1019112481E025
:1004C000E81AF1081A3014F4105D01C0195CF70144
:1004D0001083122FE32FCA01232B242B252B31F756
:1004E000B701C6010E94ED01A1960FB6F894DEBFD8
:1004F0000FBECDBFDF91CF911F910F91FF90EF9075
:10050000DF90CF90BF90AF909F908F900895CF9243
:10051000DF92EF92FF920F931F93CF93DF93EC0143
:100520006A017B012115310579F4E881F981019097
:10053000F081E02D642FDF91CF911F910F91FF90FB
:10054000EF90DF90CF9009942A303105E9F477FFDE
:100550001AC06DE20E9404028C0144275527BA019B
:100560004C195D096E097F092AE0CE010E94310213
:10057000800F911FDF91CF911F910F91FF90EF900E
:10058000DF90CF9008952AE0B701A601CE01DF9158
:10059000CF911F910F91FF90EF90DF90CF900C942F
:1005A00031024F925F926F927F928F929F92AF92A1
:1005B000BF92CF92DF92EF92FF92CF93DF93EC0145
:1005C0006A017B01B22E9A01AB01C701B6010E94FC
:1005D000CA0B882319F062E871E027C026013701B1
:1005E000E89477F82FEF3FEF4FE75FE7C301B201E1
:1005F0000E94CA0B81110DC02FEF3FEF4FE75FE75D
:10060000C301B2010E94F90918161CF466E871E0F2
:100610000CC02FEF3FEF4FE75FE4C701B6010E9428
:10062000580B18169CF46AE871E0CE01DF91CF9167
:10063000FF90EF90DF90CF90BF90AF909F908F9002
:100640007F906F905F904F900C94ED012FEF3FEFF4
:100650004FE75FECC701B6010E94F90987FDE3CFC0
:1006600020E030E0A901C701B6010E94F90987FF27
:100670000AC06DE2CE010E9404024C01F7FAF09428
:10068000F7F8F09402C0812C912CA12C60E070E06E
:1006900080E09FE3AB1441F020E030E040E251E421
:1006A0000E94FE09A394F6CF9B01AC01C701B601DD
:1006B0000E948D092B013C010E94770A6B017C018D
:1006C0000E94A60A9B01AC01C301B2010E948C09E1
:1006D0002B013C012AE0B701A601CE010E943102A4
:1006E0007C01E80CF91CBB2039F06EE871E0CE010A
:1006F0000E94ED01E80EF91EDB2CDD2039F120E02F
:1007000030E040E251E4C301B2010E945D0B2B01D5
:100710003C010E94700A4B01770FAA08BB082AE02F
:1007200030E0B501A401CE010E948702E80EF91E57
:10073000C501B4010E94A80A9B01AC01C301B2012A
:100740000E948C092B013C01DA94D7CFC701DF91BD
:10075000CF91FF90EF90DF90CF90BF90AF909F90A0
:100760008F907F906F905F904F9008950C94D1027E
:100770000E948A010E948400C9E9D4E00E94A80076
:100780002097E1F30E949904F9CFFC012485358577
:10079000F901E05CFF4F80819181329620813181A7
:1007A000821B930B8F7399270895DC011C96ED91A2
:1007B000FC911D97DF01A05CBF4F2D913C911197DB
:1007C00012968D919C9111972817390739F08D91C8
:1007D0009C91E80FF91F808190E008958FEF9FEFC3
:1007E0000895FC01A485B585FD01E05CFF4F2081E3
:1007F00031813296808191812817390779F0808183
:100800009181A80FB91F8C91208131812F5F3F4FBB
:100810002F7333273183208390E008958FEF9FEF6C
:100820000895FC0181A1882329F0A489B5898C91C0
:1008300086FFFBCF11A208950F931F93CF93DF93F1
:10084000FC01A685B7858D01005C1F4FE8018881FA
:10085000998101968F739927AD014E5B5F4FEA0135
:100860002881398182179307D1F3E80128813981E2
:10087000A20FB31F6C93A685B785A05CBF4F1196DE
:100880009C938E93A689B7892C9181E090E0078C88
:1008900002C0880F991F0A94E2F7822B8C9381E0A3
:1008A00081A30488F589E02D80818064808381E0C4
:1008B00090E0DF91CF911F910F91089508951F92BD
:1008C0000F920FB60F9211242F934F935F938F9334
:1008D0009F93EF93FF938091C00082FD1CC02091F5
:1008E000C600809164029091650201968F739927EA
:1008F00040916602509167028417950771F0E0916C
:100900006402F0916502EC5DFD4F208390936502D7
:100910008093640202C08091C600FF91EF919F9185
:100920008F915F914F912F910F900FBE0F901F905D
:1009300018958EEB91E00E94C503892B11F00C9461
:100940005E0408951F920F920FB60F9211242F93F9
:100950003F938F939F93EF93FF93209120023091C9
:10096000210280912202909123022817390731F445
:100970008091C1008F7D8093C10014C0E09122025C
:10098000F0912302E052FE4F20818091220290914B
:10099000230201968F73992790932302809322025A
:1009A0002093C600FF91EF919F918F913F912F91DE
:1009B0000F900FBE0F901F901895CF92DF92EF927D
:1009C000FF920F931F93CF93DF93EC016A017B019A
:1009D0004115514E6105710509F1EC89FD8981E0F0
:1009E00090E008A002C0880F991F0A94E2F7808364
:1009F00060E079E08DE390E0A70196010E94CF0BC3
:100A000089019A010150110921093109369527956B
:100A100017950795980101151041A8F0EC89FD89FB
:100A2000108260E874E88EE190E0A70196010E94D0
:100A3000CF0BDA01C9010197A109B109B695A795B4
:100A4000979587959C01E889F9893083EA89FB8924
:100A5000208319A2EE89FF89408181E090E09C010A
:100A60000C8C02C0220F331F0A94E2F7242B208340
:100A7000EE89FF8940819C010D8C02C0220F331F3B
:100A80000A94E2F7242B2083EE89FF8940819C01A0
:100A90000E8C02C0220F331F0A94E2F7242B20830E
:100AA000EE89FF8920810F8C02C0880F991F0A945C
:100AB000E2F7809582238083DF91CF911F910F9180
:100AC000FF90EF90DF90CF900895EEEBF1E013826E
:100AD000128288EE93E0A0E0B0E084839583A68341
:100AE000B78384E991E09183808384E292E09587E3
:100AF000848780EE91E09787868785EC90E0918BE4
:100B0000808B84EC90E0938B828B80EC90E0958BD3
:100B1000848B81EC90E0978B868B82EC90E0918FB8
:100B2000808F86EC90E0938F828F84E0848F83E0C7
:100B3000858F87E0868F85E0878F81E080A3089589
:100B4000FC0114821382608388E0818312820895FD
:100B500088E692E00C94E806FC01748363830895B0
:100B60001F93CF93DF9300D0CDB7DEB7162F682F3A
:100B700088E692E04A8359830E940207612F88E643
:100B800092E00E94A9065981652F88E692E00E94B2
:100B9000A9064A81642F88E692E00E94A90688E6A9
:100BA00092E00F900F90DF91CF911F910C941F074F
:100BB0001F93CF93DF93182F682F88E692E00E944F
:100BC000020760E088E692E00E94A90688E692E0CB
:100BD0000E941F0742E0612F88E692E00E94FF0614
:100BE00088E692E00E945506182F88E692E00E945F
:100BF0005506D12F20E0C22F9E01282BC901DF917D
:100C0000CF911F910895CF93DF93EC014B815C81CD
:100C10004362516861E088810E94B005698170E09B
:100C200080E090E00E94640188810E94D8052A81BA
:100C3000022E02C0969587950A94E2F7222329F0A6
:100C4000811528E0920708F0906FDF91CF91089509
:100C5000CF93DF93EC014B815C814362516A61E089
:100C600088810E94B005698170E080E090E00E9478
:100C7000640188810E94D8052A81022E02C09695BF
:100C800087950A94E2F7222329F0811528E092073C
:100C900008F0906FDF91CF9108958091980290E0D5
:100CA00020919902821B9109089590919902809157
:100CB0009802981750F4E92FF0E0E656FD4F208196
:100CC00030E09F5F9093990202C02FEF3FEFC90180
:100CD0000895E091990280919802E81730F4F0E0CD
:100CE000E656FD4F808190E008958FEF9FEF0895C5
:100CF0000895CF92DF92EF92FF920F931F93CF93BD
:100D0000DF937C01262F972F8A018091740288231C
:100D100091F0C62FD72F6E01C40ED51ECC15DD0560
:100D200071F06991D701ED91FC910190F081E02D76
:100D3000C7010995F3CF642F822F0E94DA07C801FB
:100D4000DF91CF911F910F91FF90EF90DF90CF90A7
:100D50000895CF93DF931F92CDB7DEB769832091BB
:100D600074022223D1F020917502203240F021E05C
:100D700030E0FC013383228380E090E015C0809155
:100D80007602E82FF0E0E958FD4F998190838F5F5C
:100D9000809376028093750205C061E0CE010196D2
:100DA0000E94DA0781E090E00F90DF91CF910895E3
:100DB000FC011382128288EE93E0A0E0B0E084830D
:100DC0009583A683B78384EA91E091838083089515
:100DD0001092990210929802109276021092750267
:100DE0000C942607862F413208F040E26AE972E04F
:100DF0000E9444071092990280939802089521E07E
:100E00000C94F20681E08093740260939702109232
:100E100076021092750208950F93062F21E04091FB
:100E2000750267E772E0809197020E94880710922E
:100E3000760210927502109274020F91089561E08B
:100E40000C940C0788E692E00C94D80610922703C5
:100E500081E0809325031092240361E082E10E94E7
:100E6000590961E083E10E945909E9EBF0E08081D2
:100E70008E7F808380818D7F808388E48093B8001B
:100E800085E48093BC000895413208F03FC0909102
:100E900027039111FCCF91E0909327032093250322
:100EA0002FEF2093BA021092FF02240F2093FE022C
:100EB0009093260390912603880F892B8093260315
:100EC00080912403813041F4109224038091260301
:100ED0008093BB0085EC01C085EE8093BC008091BF
:100EE00027038130E1F38091FF02841710F44091D1
:100EF000FF0220E033E0FB01D9018A2F821B841717
:100F000018F48D918193F9CF842F089580E008958E
:100F10000F93413208F046C0909127039111FCCF06
:100F200032E030932703009325033FEF3093BA025A
:100F30001092FF024093FE02FB0160E073E0DB01D0
:100F40003A2F361B341718F431913D93F9CF109294
:100F5000260330912603880F832B809326038091EC
:100F60002403813041F4109224038091260380935E
:100F7000BB0085EC01C085EE8093BC00222321F0EC
:100F8000809127038230D1F38091BA028F3F79F0AC
:100F90008091BA02803241F08091BA02803331F000
:100FA00094E005C091E003C092E001C093E0892F76
:100FB0000F910895613298F420912703243089F429
:100FC0006093DC02FC012EED32E0D9018A2F821BF6
:100FD000861718F481918D93F9CF80E0089581E010
:100FE000089582E0089585ED8093BC008091BC0057
:100FF00084FDFCCF10922703089585EC8093BC00FC
:101000001092270308951F920F920FB60F9211248A
:101010002F933F934F935F936F937F938F939F9300
:10102000AF93BF93EF93FF938091B900887F803691
:1010300009F49CC068F5883209F45BC090F48031F3
:1010400009F454C038F4882309F4F5C0883009F451
:101050004DC0F5C0883109F44CC0803209F45DC040
:10106000EEC0803409F468C048F4803309F455C0F8
:10107000883309F0E4C08093BA02A8C0803509F42F
:101080004FC0883509F45DC0883409F0D8C0D5C098
:10109000883909F4C6C0A8F4883709F467C038F461
:1010A000883609F463C0803709F460C0C8C0883846
:1010B00009F4B7C0803909F45FC0803809F0BFC0B7
:1010C0005BC0803B09F485C038F4803A09F466C0FF
:1010D000883A09F47EC0B3C0803C09F4A6C0883CBD
:1010E00009F4A3C0883B09F489C0A9C080912603F4
:1010F00010C09091FF028091FE02981770F5E09168
:10110000FF0281E08E0F8093FF02F0E0E050FD4F80
:1011100080818093BB0085EC85C08093BA028DC02E
:10112000E091FF0281E08E0F8093FF028091BB006F
:10113000F0E0E050FD4F80839091FF028091FE022D
:101140006DC0E091FF0281E08E0F8093FF028091DD
:10115000BB00F0E0E050FD4F8083809125038111BA
:101160006CC081E08093240384EA60C083E08093B4
:1011700027031092BB02CFCF8091BB02803208F0D0
:1011800050C0E091BB0281E08E0F8093BB02809142
:10119000BB00F0E0E454FD4F8083BDCF8091BB02E3
:1011A000803230F4E091BB02F0E0E454FD4F108255
:1011B0000E94F3076091BB0270E0E0912003F09180
:1011C00021038CEB92E009951092BB020E94FD076F
:1011D00036C084E0809327031092DD021092DC0277
:1011E000E0912203F091230309958091DC028111A3
:1011F00005C081E08093DC021092DE02E091DD0206
:1012000081E08E0F8093DD02F0E0E252FD4F80819D
:101210008093BB009091DD028091DC02981708F466
:101220007ACF85E88093BC000AC085EC8093BC002F
:101230001092270304C01092BA020E94F307FF9194
:10124000EF91BF91AF919F918F917F916F915F913E
:101250004F913F912F910F900FBE0F901F901895B7
:10126000833081F028F4813099F08230A1F0089524
:101270008630A9F08730B9F08430D1F480918000B5
:101280008F7D03C0809180008F77809380000895C8
:1012900084B58F7702C084B58F7D84BD0895809119
:1012A000B0008F7703C08091B0008F7D8093B00035
:1012B00008951F93CF93DF93282F30E0F901E85969
:1012C000FF4F8491F901E458FF4FD491F901E057A1
:1012D000FF4FC491CC23C9F0162F81110E94300911
:1012E000EC2FF0E0EE0FFF1FEC55FF4FA591B491EE
:1012F0008FB7F894111105C09C91ED2FE095E9236B
:1013000002C0EC91ED2BEC938FBFDF91CF911F9139
:101310000895F8940C94F70B5058BB27AA270E9405
:10132000A4090C941E0B0E94100B38F00E94170B9E
:1013300020F039F49F3F19F426F40C940D0B0EF4B1
:10134000E095E7FB0C94070BE92F0E942F0B58F355
:10135000BA17620773078407950720F079F4A6F59A
:101360000C94510B0EF4E0950B2EBA2FA02D0B010F
:10137000B90190010C01CA01A0011124FF27591BDA
:1013800099F0593F50F4503E68F11A16F040A22FE0
:10139000232F342F4427585FF3CF46953795279551
:1013A000A795F0405395C9F77EF41F16BA0B620B50
:1013B000730B840BBAF09150A1F0FF0FBB1F661F97
:1013C000771F881FC2F70EC0BA0F621F731F841FDA
:1013D00048F4879577956795B795F7959E3F08F000
:1013E000B0CF9395880F08F09927EE0F97958795C2
:1013F00008950E94E30A08F481E008950E94120A09
:101400000C941E0B0E94170B58F00E94100B40F01A
:1014100029F45F3F29F00C94070B51110C94520BE7
:101420000C940D0B0E942F0B68F39923B1F35523F5
:1014300091F3951B550BBB27AA27621773078407E7
:1014400038F09F5F5F4F220F331F441FAA1FA9F37D
:1014500035D00E2E3AF0E0E832D091505040E6956B
:10146000001CCAF72BD0FE2F29D0660F771F881FCC
:10147000BB1F261737074807AB07B0E809F0BB0BBF
:10148000802DBF01FF2793585F4F3AF09E3F5105D3
:1014900078F00C94070B0C94520B5F3FE4F3983EEA
:1014A000D4F3869577956795B795F7959F5FC9F7BC
:1014B000880F911D9695879597F90895E1E0660F3D
:1014C000771F881FBB1F621773078407BA0720F0B6
:1014D000621B730B840BBA0BEE1F88F7E09508951F
:1014E0000E94770A6894B1110C94520B08950E94DF
:1014F000370B88F09F5798F0B92F9927B751B0F064
:10150000E1F0660F771F881F991F1AF0BA95C9F787
:1015100014C0B13091F00E94510BB1E008950C94C9
:10152000510B672F782F8827B85F39F0B93FCCF37C
:10153000869577956795B395D9F73EF49095809504
:10154000709561957F4F8F4F9F4F0895E89409C024
:1015500097FB3EF490958095709561957F4F8F4FE6
:101560009F4F9923A9F0F92F96E9BB279395F695FC
:10157000879577956795B795F111F8CFFAF4BB0F7A
:1015800011F460FF1BC06F5F7F4F8F4F9F4F16C0DE
:10159000882311F096E911C0772321F09EE8872F68
:1015A000762F05C0662371F096E8862F70E060E024
:1015B0002AF09A95660F771F881FDAF7880F96959D
:1015C000879597F90895990F0008550FAA0BE0E841
:1015D000FEEF16161706E807F907C0F012161306F5
:1015E000E407F50798F0621B730B840B950B39F435
:1015F0000A2661F0232B242B252B21F408950A269B
:1016000009F4A140A6958FEF811D811D089597F9DA
:101610009F6780E870E060E008959FEF80EC089598
:1016200000240A94161617061806090608950024C1
:101630000A9412161306140605060895092E03943B
:10164000000C11F4882352F0BB0F40F4BF2B11F4AF
:1016500060FF04C06F5F7F4F8F4F9F4F089557FD0E
:101660009058440F551F59F05F3F71F04795880F10
:1016700097FB991F61F09F3F79F0879508951216A7
:1016800013061406551FF2CF4695F1DF08C0161653
:1016900017061806991FF1CF869571056105089404
:1016A0000895E894BB2766277727CB0197F908951B
:1016B0000E94E30A08F48FEF08950E94700B0C94C7
:1016C0001E0B0E94100B38F00E94170B20F0952380
:1016D00011F00C94070B0C940D0B11240C94520B6D
:1016E0000E942F0B70F3959FC1F3950F50E0551F8B
:1016F000629FF001729FBB27F00DB11D639FAA2767
:10170000F00DB11DAA1F649F6627B00DA11D661FB5
:10171000829F2227B00DA11D621F739FB00DA11DD6
:10172000621F839FA00D611D221F749F3327A00D90
:10173000611D231F849F600D211D822F762F6A2F2C
:1017400011249F5750409AF0F1F088234AF0EE0F91
:10175000FF1FBB1F661F771F881F91505040A9F7BE
:101760009E3F510580F00C94070B0C94520B5F3F89
:10177000E4F3983ED4F3869577956795B795F795FA
:10178000E7959F5FC1F7FE2B880F911D9695879572
:1017900097F908950E94E30A880B990B0895A1E236
:1017A0001A2EAA1BBB1BFD010DC0AA1FBB1FEE1FDB
:1017B000FF1FA217B307E407F50720F0A21BB30B26
:1017C000E40BF50B661F771F881F991F1A9469F7A2
:1017D00060957095809590959B01AC01BD01CF01FE
:1017E0000895EE0FFF1F0590F491E02D0994F894F1
:0217F000FFCF29
:1017F20048656C6C6F210047657474696E6720647C
:101802006966666572656E7469616C207265616491
:10181200696E672066726F6D2041494E30202850F4
:101822002920616E642041494E3120284E29004111
:1018320044432052616E67653A202B2F2D20362EAD
:101842003134345620283120626974203D20336DB2
:10185200562F414453313031352C20302E31383718
:10186200356D562F41445331313135290041200025
:1018720041006E616E00696E66006F7666002E0032
:10188200000000001C04C501C503F103D5031104C7
:1018920000000000A90679064D065506690678067D
:00000001FF
