:100000000C945A000C9482000C9482000C94820090
:100010000C9482000C9482000C9482000C94820058
:100020000C9482000C9482000C9482000C94820048
:100030000C9482000C9482000C9482000C94820038
:100040000C940F010C9482000C94A9030C94EC0303
:100050000C9482000C9482000C9482000C94820018
:100060000C9432070C94820000000007000201008B
:100070000003040600000000000000000102040864
:100080001020408001020408102001020408102002
:10009000040404040404040402020202020203032E
:1000A0000303030300000000250028002B000A01C1
:1000B000AF04510611241FBECFEFD4E0DEBFCDBF89
:1000C00011E0A0E0B1E0EAECF1E102C005900D9290
:1000D000AC3AB107D9F723E0ACEAB1E001C01D9218
:1000E000A432B207E1F710E0CAE5D0E004C02197DE
:1000F000FE010E94DD08C735D107C9F70E9402033F
:100100000C94B8080C94000040E05BE460E070E000
:100110008AEB91E00E94270460E071E08AEB91E0B5
:100120000E94390267E071E08AEB91E00E94390297
:1001300062E371E08AEB91E00E9439028CEA91E07F
:100140000C94F204CF92DF92EF92FF920F931F93E1
:10015000CF93DF9360E08CEA91E00E9449056C0147
:1001600061E08CEA91E00E9449057C0162E08CEA42
:1001700091E00E9449058C0163E08CEA91E00E94C5
:100180004905EC0160E771E08AEB91E00E941C02F6
:100190004AE050E0B6018AEB91E00E94EB0267E78B
:1001A00071E08AEB91E00E941C024AE050E0B70146
:1001B0008AEB91E00E94EB026EE771E08AEB91E03E
:1001C0000E941C024AE050E0B8018AEB91E00E94D4
:1001D000EB0265E871E08AEB91E00E941C024AE0C4
:1001E00050E0BE018AEB91E00E94EB0265E771E00E
:1001F0008AEB91E00E94390268EE73E080E090E0C3
:10020000DF91CF911F910F91FF90EF90DF90CF90F2
:100210000C947E0168E48CEA91E00C94EA041F924D
:100220000F920FB60F9211242F933F938F939F93AA
:10023000AF93BF938091B2019091B301A091B401AB
:10024000B091B5013091B10123E0230F2D3720F497
:100250000196A11DB11D05C026E8230F0296A11D20
:10026000B11D2093B1018093B2019093B301A0938B
:10027000B401B093B5018091B6019091B701A091FE
:10028000B801B091B9010196A11DB11D8093B601CD
:100290009093B701A093B801B093B901BF91AF910A
:1002A0009F918F913F912F910F900FBE0F901F90B4
:1002B00018953FB7F8948091B6019091B701A0913D
:1002C000B801B091B90126B5A89B05C02F3F19F020
:1002D0000196A11DB11D3FBFBA2FA92F982F8827C6
:1002E000820F911DA11DB11DBC01CD0142E0660F21
:1002F000771F881F991F4A95D1F70895CF92DF92F3
:10030000EF92FF92CF93DF936B017C010E94590122
:10031000EB01C114D104E104F10479F00E94590108
:100320006C1B7D0B683E7340A0F381E0C81AD108B6
:10033000E108F108C851DC4FECCFDF91CF91FF907D
:10034000EF90DF90CF900895789484B5826084BD5B
:1003500084B5816084BD85B5826085BD85B58160C9
:1003600085BDEEE6F0E0808181608083E1E8F0E029
:100370001082808182608083808181608083E0E858
:10038000F0E0808181608083E1EBF0E08081846037
:100390008083E0EBF0E0808181608083EAE7F0E039
:1003A000808184608083808182608083808181609D
:1003B00080838081806880831092C1000895CF92ED
:1003C000DF92EF92FF920F931F93CF93DF936C0115
:1003D000EB017B01E40EF51E00E010E0CE15DF0519
:1003E00061F06991D601ED91FC910190F081E02DD1
:1003F000C6010995080F191FF1CFC801DF91CF91F0
:100400001F910F91FF90EF90DF90CF9008956115AD
:10041000710579F0FB0101900020E9F73197AF01F8
:10042000461B570BDC01ED91FC910280F381E02D1E
:10043000099480E090E008950C940702DC01ED91AE
:10044000FC910190F081E02D09940F931F93CF93BD
:10045000DF93EC016DE00E941E028C016AE0CE0188
:100460000E941E02800F911FDF91CF911F910F916B
:1004700008950F931F93CF93DF93EC010E9407021F
:100480008C01CE010E942502800F911FDF91CF9138
:100490001F910F9108958F929F92AF92BF92CF922A
:1004A000DF92EF92FF920F931F93CF93DF93CDB71D
:1004B000DEB7A1970FB6F894DEBF0FBECDBF6C01BB
:1004C000142FE52FCB01022F19A2223008F40AE0E5
:1004D0007E0121E2E20EF11C802E912CA12CB12C88
:1004E000612F7E2FA50194010E94BB08029F101965
:1004F000112481E0E81AF1081A3014F4105D01C0EB
:10050000195CF7011083122FE32FCA01232B242B30
:10051000252B31F7B701C6010E940702A1960FB63D
:10052000F894DEBF0FBECDBFDF91CF911F910F9129
:10053000FF90EF90DF90CF90BF90AF909F908F9003
:100540000895CF92DF92EF92FF920F931F93CF9374
:10055000DF93EC016A017B012115310579F4E88113
:10056000F9810190F081E02D642FDF91CF911F91EF
:100570000F91FF90EF90DF90CF9009942A303105D2
:10058000E9F477FF1AC06DE20E941E028C01442735
:100590005527BA014C195D096E097F092AE0CE0181
:1005A0000E944B02800F911FDF91CF911F910F91FD
:1005B000FF90EF90DF90CF9008952AE0B701A60159
:1005C000CE01DF91CF911F910F91FF90EF90DF90BF
:1005D000CF900C944B020F931F93CF93DF93EC01BA
:1005E0009A01AB01770F660B770B0E94A1028C0179
:1005F000CE010E942502800F911FDF91CF911F91A4
:100600000F9108950E94A4010E948400C3EED3E0DC
:100610000E94A2002097E1F30E94E303F9CFFC01BE
:1006200024853585F901E05CFF4F80819181329608
:1006300020813181821B930B8F7399270895DC01F0
:100640001C96ED91FC911D97DF01A05CBF4F2D9191
:100650003C91119712968D919C911197281739070B
:1006600039F08D919C91E80FF91F808190E00895F9
:100670008FEF9FEF0895FC01A485B585FD01E05C37
:10068000FF4F20813181329680819181281739076F
:1006900079F080819181A80FB91F8C9120813181DF
:1006A0002F5F3F4F2F7333273183208390E00895CE
:1006B0008FEF9FEF0895FC0181A1882329F0A48981
:1006C000B5898C9186FFFBCF11A208950F931F93DC
:1006D000CF93DF93FC01A685B7858D01005C1F4F8A
:1006E000E8018881998101968F739927AD014E5B4E
:1006F0005F4FEA012881398182179307D1F3E8011E
:1007000028813981A20FB31F6C93A685B785A05CA1
:10071000BF4F11969C938E93A689B7892C9181E047
:1007200090E0078C02C0880F991F0A94E2F7822B91
:100730008C9381E081A30488F589E02D8081806419
:10074000808381E090E0DF91CF911F910F91089518
:1007500008951F920F920FB60F9211242F934F936B
:100760005F938F939F93EF93FF938091C00082FDDF
:100770001CC02091C6008091600290916102019698
:100780008F739927409162025091630284179507F5
:1007900071F0E0916002F0916102E05EFD4F208314
:1007A000909361028093600202C08091C600FF9125
:1007B000EF919F918F915F914F912F910F900FBE6D
:1007C0000F901F9018958AEB91E00E940F03892BE0
:1007D00011F00C94A80308951F920F920FB60F9278
:1007E00011242F933F938F939F93EF93FF93209127
:1007F0001C0230911D0280911E0290911F02281749
:10080000390731F48091C1008F7D8093C10014C0FD
:10081000E0911E02F0911F02E452FE4F2081809170
:100820001E0290911F0201968F73992790931F02C9
:1008300080931E022093C600FF91EF919F918F91AC
:100840003F912F910F900FBE0F901F901895CF9250
:10085000DF92EF92FF920F931F93CF93DF93EC0100
:100860006A017B014115514E6105710509F1EC8961
:10087000FD8981E090E008A002C0880F991F0A94CA
:10088000E2F7808360E079E08DE390E0A7019601D4
:100890000E94BB0889019A010150110921093109FF
:1008A0003695279517950795980101151041A8F0E1
:1008B000EC89FD89108260E874E88EE190E0A70180
:1008C00096010E94BB08DA01C9010197A109B1098B
:1008D000B695A795979587959C01E889F989308306
:1008E000EA89FB89208319A2EE89FF89408181E092
:1008F00090E09C010C8C02C0220F331F0A94E2F797
:10090000242B2083EE89FF8940819C010D8C02C03D
:10091000220F331F0A94E2F7242B2083EE89FF89EC
:1009200040819C010E8C02C0220F331F0A94E2F713
:10093000242B2083EE89FF8920810F8C02C0880F31
:10094000991F0A94E2F7809582238083DF91CF91EB
:100950001F910F91FF90EF90DF90CF900895EAEBF9
:10096000F1E01382128288EE93E0A0E0B0E084838D
:100970009583A683B78380E991E09183808380E2A9
:1009800092E0958784878CED91E09787868785EC48
:1009900090E0918B808B84EC90E0938B828B80EC49
:1009A00090E0958B848B81EC90E0978B868B82EC2A
:1009B00090E0918F808F86EC90E0938F828F84E01F
:1009C000848F83E0858F87E0868F85E0878F81E045
:1009D00080A30895FC0114821382608388E08183E0
:1009E0001282089584E692E00C9417061F93CF9329
:1009F000DF9300D0CDB7DEB7162F682F84E692E0E4
:100A00004A8359830E943106612F84E692E00E9456
:100A1000D8055981652F84E692E00E94D8054A8165
:100A2000642F84E692E00E94D80584E692E00F905D
:100A30000F90DF91CF911F910C944E061F93CF938F
:100A4000DF93182F682F84E692E00E94310660E061
:100A500084E692E00E94D80584E692E00E944E0669
:100A600042E0612F84E692E00E942E0684E692E046
:100A70000E948405182F84E692E00E948405D12FFD
:100A800020E0C22F9E01282BC901DF91CF911F9139
:100A90000895CF93DF93643050F5FC014381548176
:100AA000623051F0633059F0613019F0436851649D
:100AB00008C04368516505C04368516602C0436879
:100AC0005167EC01506861E088810E94F6046981F9
:100AD00070E080E090E00E947E0188810E941E0507
:100AE0000A8002C0969587950A94E2F702C080E0DA
:100AF00090E0DF91CF9108958091940290E0209151
:100B00009502821B9109089590919502809194021B
:100B1000981750F4E92FF0E0EA56FD4F208130E0BD
:100B20009F5F9093950202C02FEF3FEFC901089598
:100B3000E091950280919402E81730F4F0E0EA56D3
:100B4000FD4F808190E008958FEF9FEF0895089505
:100B5000CF92DF92EF92FF920F931F93CF93DF9389
:100B60007C01262F972F8A0180917002882391F0B3
:100B7000C62FD72F6E01C40ED51ECC15DD0571F022
:100B80006991D701ED91FC910190F081E02DC701B1
:100B90000995F3CF642F822F0E940907C801DF91C6
:100BA000CF911F910F91FF90EF90DF90CF9008951C
:100BB000CF93DF931F92CDB7DEB769832091700288
:100BC0002223D1F020917102203240F021E030E068
:100BD000FC013383228380E090E015C08091720293
:100BE000E82FF0E0ED58FD4F998190838F5F80935F
:100BF00072028093710205C061E0CE0101960E94ED
:100C0000090781E090E00F90DF91CF910895FC01FA
:100C10001382128288EE93E0A0E0B0E08483958393
:100C2000A683B78380EA91E0918380830895109230
:100C300095021092940210927202109271020C941A
:100C40005506862F413208F040E266E972E00E94C4
:100C500073061092950280939402089521E00C94FB
:100C6000210681E0809370026093930210927202D9
:100C70001092710208950F93062F21E040917102A6
:100C800063E772E0809193020E94B70610927202AD
:100C900010927102109270020F91089561E00C940D
:100CA0003B0684E692E00C9407061092230381E051
:100CB000809321031092200361E082E10E94880862
:100CC00061E083E10E948808E9EBF0E080818E7F9B
:100CD000808380818D7F808388E48093B80085E461
:100CE0008093BC000895413208F03FC090912303E7
:100CF0009111FCCF91E090932303209321032FEFD8
:100D00002093B6021092FB02240F2093FA029093D4
:100D1000220390912203880F892B809322038091D4
:100D20002003813041F410922003809122038093AC
:100D3000BB0085EC01C085EE8093BC00809123034D
:100D40008130E1F38091FB02841710F44091FB02A3
:100D50002CEF32E0FB01D9018A2F821B841718F493
:100D60008D918193F9CF842F089580E008950F939A
:100D7000413208F046C0909123039111FCCF32E03C
:100D800030932303009321033FEF3093B602109278
:100D9000FB024093FA02FB016CEF72E0DB013A2F99
:100DA000361B341718F431913D93F9CF109222037A
:100DB00030912203880F832B80932203809120039C
:100DC000813041F410922003809122038093BB0074
:100DD00085EC01C085EE8093BC00222321F0809138
:100DE00023038230D1F38091B6028F3F79F0809156
:100DF000B602803241F08091B602803331F094E047
:100E000005C091E003C092E001C093E0892F0F91EB
:100E10000895613298F420912303243089F460937B
:100E2000D802FC012AED32E0D9018A2F821B8617F5
:100E300018F481918D93F9CF80E0089581E00895B1
:100E400082E0089585ED8093BC008091BC0084FD14
:100E5000FCCF10922303089585EC8093BC00109280
:100E6000230308951F920F920FB60F9211242F9310
:100E70003F934F935F936F937F938F939F93AF9322
:100E8000BF93EF93FF938091B900887F803609F478
:100E90009CC068F5883209F45BC090F4803109F495
:100EA00054C038F4882309F4F5C0883009F44DC0E3
:100EB000F5C0883109F44CC0803209F45DC0EEC041
:100EC000803409F468C048F4803309F455C088338D
:100ED00009F0E4C08093B602A8C0803509F44FC081
:100EE000883509F45DC0883409F0D8C0D5C0883988
:100EF00009F4C6C0A8F4883709F467C038F4883606
:100F000009F463C0803709F460C0C8C0883809F4A8
:100F1000B7C0803909F45FC0803809F0BFC05BC03A
:100F2000803B09F485C038F4803A09F466C0883AF9
:100F300009F47EC0B3C0803C09F4A6C0883C09F423
:100F4000A3C0883B09F489C0A9C08091220310C0C6
:100F50009091FB028091FA02981770F5E091FB02E4
:100F600081E08E0F8093FB02F0E0E450FD4F808122
:100F70008093BB0085EC85C08093B6028DC0E09164
:100F8000FB0281E08E0F8093FB028091BB00F0E0BA
:100F9000E450FD4F80839091FB028091FA026DC076
:100FA000E091FB0281E08E0F8093FB028091BB00F9
:100FB000F0E0E450FD4F80838091210381116CC0EB
:100FC00081E08093200384EA60C083E08093230360
:100FD0001092B702CFCF8091B702803208F050C094
:100FE000E091B70281E08E0F8093B7028091BB0041
:100FF000F0E0E854FD4F8083BDCF8091B70280328E
:1010000030F4E091B702F0E0E854FD4F10820E9406
:1010100022076091B70270E0E0911C03F0911D037C
:1010200088EB92E009951092B7020E942C0736C017
:1010300084E0809323031092D9021092D802E091A9
:101040001E03F0911F0309958091D802811105C0FC
:1010500081E08093D8021092DA02E091D90281E017
:101060008E0F8093D902F0E0E652FD4F808180938D
:10107000BB009091D9028091D802981708F47ACFDA
:1010800085E88093BC000AC085EC8093BC00109278
:10109000230304C01092B6020E942207FF91EF9131
:1010A000BF91AF919F918F917F916F915F914F9180
:1010B0003F912F910F900FBE0F901F901895833086
:1010C00081F028F4813099F08230A1F008958630C3
:1010D000A9F08730B9F08430D1F4809180008F7D01
:1010E00003C0809180008F7780938000089584B53D
:1010F0008F7702C084B58F7D84BD08958091B00044
:101100008F7703C08091B0008F7D8093B0000895E9
:101110001F93CF93DF93282F30E0F901E859FF4F59
:101120008491F901E458FF4FD491F901E057FF4F42
:10113000C491CC23C9F0162F81110E945F08EC2FB7
:10114000F0E0EE0FFF1FEC55FF4FA591B4918FB764
:10115000F894111105C09C91ED2FE095E92302C090
:10116000EC91ED2BEC938FBFDF91CF911F91089500
:10117000F8940C94E308A1E21A2EAA1BBB1BFD01F4
:101180000DC0AA1FBB1FEE1FFF1FA217B307E40766
:10119000F50720F0A21BB30BE40BF50B661F771FBE
:1011A000881F991F1A9469F760957095809590959E
:1011B0009B01AC01BD01CF010895EE0FFF1F05900B
:0A11C000F491E02D0994F894FFCF9C
:1011CA0048656C6C6F210047657474696E6720739B
:1011DA00696E676C652D656E64656420726561640D
:1011EA00696E67732066726F6D2041494E302E2EEC
:1011FA0033004144432052616E67653A202B2F2DFC
:10120A0020362E3134345620283120626974203D2C
:10121A0020336D562F414453313031352C20302E36
:10122A00313837356D562F41445331313135290024
:10123A0041494E303A200041494E313A2000414955
:10124A004E323A200041494E333A20000000000055
:10125A006603DF010F033B031F035B03000000006B
:0C126A00D805A8057C0584059805A7059B
:00000001FF
